:020000040800F2
:1000000060130020F9260008C5010008C701000898
:10001000CB010008CF010008D30100080000000058
:10002000000000000000000000000000D7010008F0
:10003000D901000800000000DB010008DD01000814
:1000400013270008132700081327000813270008A8
:100050001327000813270008132700081327000898
:100060001327000813270008132700081327000888
:100070001327000813270008132700081327000878
:100080001327000813270008132700081327000868
:100090001327000813270008132700081327000858
:1000A0001327000813270008132700081327000848
:1000B0001327000813270008132700081327000838
:1000C0001327000813270008132700081327000828
:1000D00013270008050E000813270008610B00080D
:1000E0001327000813270008132700081327000808
:1000F00013270008132700081327000813270008F8
:1001000013270008132700081327000813270008E7
:1001100013270008132700081327000813270008D7
:1001200013270008132700081327000813270008C7
:10013000DFF80CD003F058FC0048004745010008E8
:100140006013002000F09AFD4FF4A06002F0E6FA80
:100150004FF4E13000F00AFE00F059FA00F08CFC98
:1001600009A10CA000F0E9F942F28C310DA000F0D9
:1001700089F900231A460A210EA000F021F902E0B5
:100180000F4800F05AFCFBE7383838383838383830
:100190000000000068656C6C6F2D65737038323636
:1001A000360000003139322E3136382E312E3130C2
:1001B0003100000041542B43494653520D0A0000C0
:1001C00054020020704700BFFEE700BFFEE700BFFB
:1001D000FEE700BFFEE770477047704770470000BA
:1001E0000CB50020019000906C48006840F480300D
:1001F0006A49086000BF6948006800F40030009058
:100200000198401C0190009818B90198B0F5A06FB2
:10021000F1D16248006800F4003010B10120009074
:1002200001E0002000900098012843D15C4800685C
:1002300040F010005A4908600846006820F00300AA
:1002400008600846006840F00200086053484068B3
:10025000524948600846406848600846406840F493
:10026000806048600846406820F47C10486008467A
:10027000406840F4E81048600846006840F080702C
:10028000086000BF4548006800F000700028F9D001
:100290004248406820F003004049486008464068F2
:1002A00040F00200486000BF3C48406800F00C008D
:1002B0000828F9D10CBD10B5FFF792FF10BD10B59D
:1002C0003648006840F0010034490860084640683C
:1002D00034490840314948600846006832490840BE
:1002E0002E4908600846006820F48020086008460F
:1002F000406820F4FE0048604FF41F008860FFF75C
:10030000DAFF4FF000602949086010BD10B50021E8
:1003100000200022214B5B6803F00C0121B104296D
:1003200006D0082928D107E0214B224C236027E082
:100330001F4B204C236023E0184B5B6803F47010C4
:10034000164B5B6803F48032022303EB904022B922
:10035000194B4343174C23600DE0104B5B6803F4CB
:10036000003323B1144B4343124C236003E0104B82
:100370004343104C236003E00D4B0E4C236000BF41
:1003800000BF064B5B68C3F303130C4CE15C094BE5
:100390001B68CB40074C236010BD000000100240DA
:1003A000002002400000FFF8FFFFF6FE08ED00E02D
:1003B00000127A000000002000093D000400002027
:1003C0002DE9F04F89B080468B461646994620218C
:1003D00001A802F0B4FF0025002000908246B8F189
:1003E000000F02D0BBF1000F04DC4FF0FF3009B06A
:1003F000BDE8F08F5946404600F01FFC002E3FD06C
:10040000304602F0C3FF04464FF0FF3000904FF03B
:10041000000A2CE0904800F029FE002822DDC5F1FA
:10042000200201A841198C4800F04AFD0746002F20
:100430001DDD314601A802F08DFF30B1414687A095
:1004400003F036FB0020009013E03D44A5420EDB94
:1004500001A84319601E191A621E01A802F056FF76
:10046000651E04E0012000F046FC0AF1010ACA45BD
:10047000D0DB00BFCA4503DB41467FA003F018FB79
:100480000098B4E7F0B591B004460D46402101A8AC
:1004900002F055FF04B11DB94FF0FF3011B0F0BDAF
:1004A000402101A802F04BFF234679A27BA101A8BD
:1004B00003F00EFB4FF47A737BA20D217BA0FFF7B4
:1004C0007FFF0646402101A802F039FF2B467BA2A0
:1004D0007EA101A803F0FCFA01A802F057FF07462D
:1004E0004FF47A7370A2394601A8FFF769FF0646F8
:1004F0000020784948703046D0E770B590B0044687
:100500004021684602F01BFF4021684602F017FFB9
:10051000234671A273A1684603F0DAFA684602F036
:1005200035FF06464FF47A735FA231466846FFF7FF
:1005300047FF0546284610B070BDF0B593B004469D
:100540000D46402103A802F0FAFE1CB94FF0FF301F
:1005500013B0F0BD0220FFF7D0FF0646402103A8EC
:1005600002F0EDFE03200521234660A2CDE90051F3
:10057000029061A103A803F0ABFA03A802F006FF02
:1005800007464FF47A7348A2394603A8FFF718FFCD
:1005900006463046DCE770B592B005460C46402171
:1005A00002A802F0CCFE402102A802F0C8FE494891
:1005B000407830B9002355A257A102A8009403F057
:1005C00087FA02A802F0E2FE064600231A463146E8
:1005D00002A8FFF7F5FE0A2000F08DFB2146284611
:1005E00000F02BFB2B4622464E494FA003F060FA49
:1005F000204612B070BD10B54FA003F059FA4FF469
:10060000FA6352A2082153A0FFF7DAFE10BD10B51D
:100610003048002101804FF4007251490E4800F02B
:1006200043FD4FF4E13000F0B5FAFFF7E4FF4FF47B
:100630007A731DA206214BA0FFF7C2FE4FF47A7316
:1006400019A2042149A0FFF7BBFE4AA003F030FA2B
:10065000002010BD70470000540200206573703800
:100660003236362073657420257320737563636595
:1006700073732E0D0A0000006572726F723A207358
:100680006574202573206661696C6564210D0A001C
:1006900041542B43495041503D0000002573222511
:1006A00073220D0A000000004F4B000041542B4301
:1006B00049504D55583D310D0A00000041542B431F
:1006C00049505345525645523D31000025732C2563
:1006D000640D0A001400002041542B43574D4F4431
:1006E000453D0000257325640D0A000041542B434D
:1006F000575341503D0000002573222573222C22C0
:100700002573222C25642C25640D0A0041542B43AB
:10071000495053454E443D00257325642C25640DF6
:100720000A0000009050000825735B25645D3A20A4
:1007300025730D0A000000007769666920726573F1
:100740006574202E2E2E0D0A000000007265616473
:100750007900000041542B5253540D0A0000000050
:1007600054000020415445300D0A000041540D0A48
:10077000000000007769666920657370383236368C
:1007800020696E6974204F4B2E0D0A002DE9F04749
:1007900004460D4601F06EFE8046BDA001F053FEFA
:1007A00006463246BCA1404601F045FDBCA001F022
:1007B0004AFE06463246BCA1404601F03CFD01F02F
:1007C00059FE814606463246B9A1404601F033FD46
:1007D0002046294601F025FE06463246B6A1484687
:1007E00001F029FD404601F0C5FC07463946B5A099
:1007F00003F05EF9384602F0C9FD06463146384638
:10080000FFF7C9FE384600F0C5FC404600F027FD62
:100810000020BDE8F0872DE9FC410446002000904F
:10082000019025232246AAA1684603F051F901F060
:1008300021FE074696A001F006FE05462A4696A12F
:10084000384601F0F8FC96A001F0FDFD05462A4669
:1008500095A1384601F0EFFC01F00CFE80460546FC
:100860002A4693A1384601F0E6FC684601F0EBFD0C
:1008700005462A4698A1404601F0DDFC384601F0C5
:1008800079FC064631468FA003F012F9304602F09B
:100890007DFD054629463046FFF77DFE304600F0D7
:1008A00079FC384600F0DBFC0020BDE8FC8170B527
:1008B000054615B94FF0FF3070BD8AA1284601F0FA
:1008C0007BFC044624B188A02269216A03F0F0F879
:1008D00089A1284601F070FC044664B182A0226917
:1008E000216A03F0E5F84FF066308549FFF74EFFC7
:1008F0005020FFF790FF0020DEE701460020704700
:100900000146002070472DE9F047074689463846E2
:1009100001F0EBF906463EB97A497BA003F0C8F82E
:100920004FF0FF30BDE8F0875BA1304601F044FC9A
:1009300005467BA02A69296A03F0BAF854A1286900
:1009400002F02BFD10B14FF0FF30EBE756A130461F
:1009500001F032FC044672A02269216A03F0A8F873
:1009600053A1304601F028FC804671A1206902F0B5
:1009700014FD18B94046FFF79AFF10E06DA12069F9
:1009800002F00BFD18B94046FFF7B7FF07E044A19E
:10099000206902F002FD10B94046FFF7B1FF304672
:1009A00000F05DFC0020BDE7F8B504460E460020CF
:1009B0000090304600F05AFB0746002F01DC002073
:1009C000F8BD002535E001226946304600F078FA8E
:1009D0009DF800007B2802D02068002807DD9DF8E4
:1009E0000000D4E902128854E068401CE0609DF8E1
:1009F000001051A003F05CF89DF800007B2803D1A3
:100A00002068401C206013E09DF800007D280FD175
:100A1000206800280CDD2068401E2060206838B95E
:100A20000120606045A0A16803F042F80020C7E7FC
:100A30006D1CBD42C7DB0020C2E710B5044614B9E7
:100A40004FF0FF3010BD21464348FFF7ADFF42484D
:100A5000406801280ED1404AD1689068FFF753FFE3
:100A600000203D49C8604860086088684FF4807184
:100A700002F065FC0020E5E7374800210160416095
:100A80008160C160354834498860002070477047F4
:100A900061626364000000006D61676963000000CB
:100AA00073746174757300007479706500000000E0
:100AB000646174610000000074656D70657261743A
:100AC000650000004A534F4E3A0D0A25730D0A0087
:100AD000256425630000000068756D696469747998
:100AE000000000006C656400636D64205B25735D2D
:100AF0003A2025730D0A0000646F6F720000000039
:100B000066A642409F50000825733A206A736F6EB4
:100B10002070617273652066696C6564210D0A003E
:100B2000676574205B25735D3A2025730D0A00000C
:100B3000636D64006D736700256300000D0A232355
:100B400023206465746563742070726F746F636FC3
:100B50006C3A2025730D0A0068030020680200200B
:100B600008B540F225513F4802F086FB88B13D4868
:100B700002F002FBC0B200903B4800F094F928B9A3
:100B800001226946384800F003FA02E037A002F07B
:100B90008FFF08BD10B586B004460121082002F081
:100BA00047F90121880402F050F92E4802F0A4F917
:100BB0004FF48060ADF8100003208DF8120018206B
:100BC0008DF8130004A92C4801F076FE4FF4006064
:100BD000ADF8100004208DF8130004A9264801F098
:100BE0006BFE00940020ADF80400ADF80600ADF8EF
:100BF0000800ADF80C000C20ADF80A006946194851
:100C000002F0BDF90121174802F045FA012240F235
:100C10002551144802F04BFA27208DF814000220C9
:100C20008DF8150003208DF8160001208DF81700AF
:100C300005A801F078FD06B010BD70B505460E465A
:100C400000240BE000BF4021064802F0FFFA002814
:100C5000F9D0295D034802F08BFA641CB442F1DB41
:100C600070BD00000048004054020020453A206654
:100C7000756C6C0D0A000000000C014010B56FF09F
:100C8000040001F09AFD2E4800682E49B0FBF1F0F7
:100C90002D4908700846007800EB4001C1EBC010F8
:100CA0004FF6FF7101EAC0002849088010BD0146D7
:100CB000254A12784A434FF0E0235A6100229A6194
:100CC0001A46126942F001021A6100BF4FF0E02299
:100CD000106900F001021AB100F48032002AF5D048
:100CE0004FF0E022126922F001024FF0E0231A6176
:100CF00000229A6170470146144A12884A434FF015
:100D0000E0235A6100229A611A46126942F00102F8
:100D10001A6100BF4FF0E022106900F001021AB121
:100D200000F48032002AF5D04FF0E022126922F060
:100D300001024FF0E0231A6100229A61704700001F
:100D40000000002000127A00160000201800002089
:100D500000BF704700BF4A4A128802F04002002AD2
:100D6000F9D0C2B2464B1B1D1A80704710B586B031
:100D70000446012144F2040002F05AF84FF40070D6
:100D8000ADF8140003208DF8160018208DF8170018
:100D900005A93C4801F090FD4FF48060ADF81400C7
:100DA00004208DF8170005A9364801F085FD25209F
:100DB0008DF8000003208DF801008DF8020001205D
:100DC0008DF80300684601F0AEFC01940020ADF8F8
:100DD0000800ADF80A00ADF80C00ADF810000C20CA
:100DE000ADF80E0001A9264802F0C9F8012240F230
:100DF0002551234802F05BF90121214802F04BF90B
:100E000006B010BD10B540F225511D4802F034FA6D
:100E100010B31B4802F0B0F9C4B21B48008800F4BC
:100E20000040C8B91848008800F4804060B10A2C1E
:100E300003D000201449088020E01348008840F4C3
:100E400000401149088019E00D2C06D10E48008899
:100E500040F480400C49088010E00B480088C0F343
:100E60000D000A490C5408480088401C06490880B7
:100E700008460088C72801DD0020088010BD00005A
:100E800000380140000801402000002078030020C5
:100E9000014611B94FF0FF307047086908B90120C9
:100EA000FAE70020F8E7014611B94FF0FF3070472C
:100EB0004A680869904201D10120F8E70020F6E76E
:100EC0002DE9F0410446884615460026002714B156
:100ED000B8F1000F03D14FF0FF30BDE8F081206979
:100EE00008B90020F9E7D4E90201884216DDD4E907
:100EF0000201401AA84201DB284602E0D4E90201BF
:100F0000401A0646E268206881183246404602F0E0
:100F1000FDF9E0683044E060374634E0E16860683D
:100F2000401AA84210DBE268206881182A46404631
:100F300002F0ECF9E0682844616890FBF1F201FBF3
:100F40001200E0602F461EE0E1686068461AE26821
:100F5000206881183246404602F0D8F90020E0604F
:100F60003746E81BA168884201DCE81B00E0A06866
:100F7000064608EB07003246216802F0C7F9E06830
:100F80003044E06037442069C01B20613846A4E744
:100F90002DE9F0410446884615460027002624B175
:100FA000B8F1000F01D0002D03DA4FF0FF30BDE89B
:100FB000F08161682069884200D00DB90020F6E711
:100FC000D4E90201884235DBD4E90101401AA84284
:100FD00010DBA268216888182A46414602F096F97B
:100FE000A0682844616890FBF1F201FB1200A06048
:100FF0002E4636E0D4E90101471AA2682168881814
:101000003A46414602F082F90020A0603E44A81B07
:10101000E168884201DCA81B00E0E068074608EBB5
:1010200006013A46206802F071F9A0683844A060D1
:101030003E4416E0D4E90210401A401EA84201DBEB
:10104000284602E0D4E90210401A0746A268216847
:1010500088183A46414602F059F9A0683844A06021
:101060003E462069304420613046A0E7014611B970
:101070004FF0FF3070470869FCE701460A6948688D
:10108000801A7047014611B94FF0FF307047486829
:10109000FCE7014611B94FF0FF307047002088602F
:1010A000C860086100BFF8E770B504460E461546F3
:1010B00014B10EB1002D02DC4FF0FF3070BD1421D1
:1010C000204602F03CF9266065600020F6E710B586
:1010D000044604B910BD1421204602F030F900BFC7
:1010E000F8E70000FE480068704770B504460D46FA
:1010F0002CB9AC4201D0012070BD0020FCE70DB935
:101100000120F9E705E0207808B90020F4E7641C25
:101110006D1C207802F0F4F80646287802F0F0F80A
:101120008642F0D0207802F0EBF80646287802F0EC
:10113000E7F8301AE0E770B50546284603F060FA94
:101140000646E84800682844E6490860002410E0A4
:10115000E54850F8340020B1E34800EBC400406893
:1011600030B9E14840F8346000EBC400456002E06B
:10117000641C642CECD300BF642C02D3DBA002F00F
:1011800097FCD848324629460368DDA002F090FC5F
:10119000304670BD70B50546284603F009FA0024B4
:1011A00015E0D14850F83400A8420FD1CE4800EBEA
:1011B000C4004068CB490968081ACA490860CA488F
:1011C00000EBC40000210160416002E0641C642C5B
:1011D000E7D300BF642C02D3D2A002F069FCC1485F
:1011E00029460268D4A002F063FC70BD70B50446C5
:1011F000204602F0CBF8451C2846D74909688847A5
:10120000061E00D170BD2A462146304602F07EF807
:101210003046F7E730B9D149CF4A1160D049D14AB9
:1012200011607047016809B1016800E0CB49CA4A02
:101230001160416809B1416800E0C949C94A1160BB
:1012400000BFEEE710B52820C34909688847044667
:101250001CB12821204602F072F8204610BD70B55E
:1012600004461EE02568A08900F4807020B9A068BB
:1012700010B1A068FFF7F3FFA08900F4807028B9CF
:10128000206918B1B749206909688847206A18B1F0
:10129000B449206A096888472046B24909688847E6
:1012A0002C46002CDED170BD2DE9F04F8BB083466B
:1012B0008A460020044605460026AB4F002188469A
:1012C00089460990012008909AF800002D2802D143
:1012D000A64F0AF1010A9AF80000302801D10AF15C
:1012E000010A9AF80000312822DB9AF80000392818
:1012F0001EDC00BF1AF8011BA1F1300002F08CF9CE
:1013000000229B4BCDE906012046294602F012F946
:10131000CDE90401DDE9062302F065F804460D4637
:101320009AF80000302803DB9AF800003928E1DD44
:101330009AF800002E2830D19AF8010030282CDBD2
:101340009AF80100392828DC0AF1010A00BF1AF8CE
:10135000011BA1F1300002F05FF90022844BCDE9BE
:1013600006012046294602F0E5F8CDE90401DDE951
:10137000062302F038F804460D4600227A4B404618
:10138000494602F0D1F8804689469AF80000302894
:1013900003DB9AF800003928D9DD9AF800006528A7
:1013A00003D09AF80000452823D10AF1010A9AF8DF
:1013B00000002B2802D10AF1010A08E09AF8000087
:1013C0002D2804D14FF0FF3008900AF1010A08E0FF
:1013D0001AF8010B3038099901EB810100EB41004B
:1013E00009909AF80000302803DB9AF800003928A9
:1013F000EEDDDDE9082101FB02F002F00DF94246C5
:101400004B46CDE9000101F0EEFF02460B46CDE967
:1014100002010020564903F029F922462B46CDE966
:1014200006013046394602F085F8CDE90401DDE9D0
:10143000062302F07FF804460D46CBE90645204618
:10144000294602F0FAF8CBF814000320CBF80C0080
:1014500050460BB0BDE8F08F2DE9F05F8146D9E929
:101460000645D9F8140002F0D7F8074622462B4665
:1014700002F05AF821F00041824600223D4B02F072
:101480000FF91BD83C4A3D4B2046294602F008F98B
:1014900014D800223A4B2046294602F019F90DD8FB
:1014A00015202D49096888470646002E05D035A12C
:1014B0003046D9F8142002F00BFB9BE0402026496F
:1014C000096888470646002E75D02046294603F055
:1014D00001F8074622462B4602F026F854E00000A9
:1014E0002400002028000020400400202121212089
:1014F0004E6F2066726565206E6F64650D0A000090
:101500006D616C6C6F63282564292025702C206820
:10151000656164705F7573655F73697A653A2025EC
:10152000640D0A00212121204E6F742066696E64CB
:10153000206E6F64650D0A00667265652025702C4B
:101540002068656164705F7573655F73697A653A79
:101550002025640D0A0000002C0000200146000830
:10156000B1450008300000200000F03F0000F0BF4F
:10157000000024400000B03C0000C0FFFFFFDF413E
:101580000000E0C12564000021F0004182460022F5
:10159000F84B02F085F80FD825F000412746F64AAF
:1015A000F64B384602F07CF806D222462B46F4A1D0
:1015B000304602F08DFA1DE025F000412746F24A40
:1015C000F24B384602F06CF807D325F000410022B8
:1015D000EF4B384602F07CF806D222462B46EDA1AE
:1015E000304602F075FA05E022462B46EAA1304665
:1015F00002F06EFA3046BDE8F09F014600220878FE
:10160000302806DB0878392803DC087830380244B3
:1016100015E00878412806DB0878462803DC0878BE
:10162000373802440BE00878612806DB0878662822
:1016300003DC08785738024401E0002070471201AB
:10164000491C0878302806DB0878392803DC08783C
:101650003038024415E00878412806DB087846282F
:1016600003DC0878373802440BE00878612806DB91
:101670000878662803DC08785738024401E0002027
:10168000DCE71201491C0878302806DB0878392885
:1016900003DC08783038024415E00878412806DB7E
:1016A0000878462803DC0878373802440BE00878CD
:1016B000612806DB0878662803DC0878573802447E
:1016C00001E00020BAE71201491C0878302806DB47
:1016D0000878392803DC08783038024415E00878A7
:1016E000412806DB0878462803DC087837380244AE
:1016F0000BE00878612806DB0878662803DC0878A8
:101700005738024401E0002098E7104696E72DE99B
:10171000F05F8346884608F10104002798F800002E
:10172000222805D09D48C0F800800020BDE8F09F29
:1017300004E014F8011B5C2900D1641C20782228E5
:1017400004D0207810B1781C071EF2D1781C94497F
:10175000096888478146B9F1000F01D10020E5E70B
:1017600008F101044D469EE020785C2804D014F86E
:10177000010B05F8010B96E0641C2078722818D044
:1017800006DC622809D066280BD06E287ED10CE0DA
:10179000742812D07528F9D113E0082005F8010B40
:1017A0007FE00C2005F8010B7BE00A2005F8010B17
:1017B00077E00D2005F8010B73E0092005F8010B17
:1017C0006FE0601CFFF719FF0646241DB6F55C4F5D
:1017D00002D3B6F5604F00D306B962E0B6F5584FB4
:1017E0001CD3B6F55C4F19D260785C2802D1A07882
:1017F000752800D055E0E01CFFF7FFFE8246A41DCF
:10180000BAF55C4F02D3BAF5604F00D349E0C6F396
:101810000901504661F39F2000F580360427802E91
:1018200001D2012708E0B6F5006F01D2022703E0DC
:10183000B6F5803F00D203273D44012F20D0022F70
:1018400015D0032F0AD0042F24D106F0BF0040F09A
:101850008001681E05460170B60900BF06F0BF0092
:1018600040F08001681E05460170B60900BF06F011
:10187000BF0040F08001681E05460170B60900BF38
:101880004848C05D3043C1B2681E00E005E005462F
:10189000017000BF00BF3D4403E0207805F8010B54
:1018A00000BF00BF641C2078222803D020780028C5
:1018B0007FF45AAF002028702078222800D1641CC1
:1018C000CBF810900420CBF80C0020462EE72DE931
:1018D000F04707464FF0000827B92AA0FFF786FC1B
:1018E000BDE8F0873D460DE049462FA001F044FDDC
:1018F00010B108F1010804E0B9F1200F01DA08F194
:1019000005086D1C95F80090B9F1000F04D008F19E
:101910000100B0F10008E7D108F10300204909688F
:10192000884706460EB90020DAE734463D462220B5
:1019300004F8010B66E028781F280ADD28782228A1
:1019400007D028785C2804D015F8010B04F8010BA7
:1019500058E05C2004F8010B15F8011B89460C299E
:1019600038D025DC082931D009293FD00A2941D1B6
:1019700034E000000000B03C44F3C2E4E4E9634C0E
:10198000252E3066000000008DEDB5A0F7C6B03EF4
:1019900065CDCD41256500002566000024000020AE
:1019A0002C000020B2500008225C080C0A0D09002F
:1019B0000D2917D0222905D05C291BD15C2004F801
:1019C000010B1EE0222004F8010B1AE0622004F84B
:1019D000010B16E0662004F8010B12E06E2004F8FB
:1019E000010B0EE0722004F8010B0AE0742004F8E9
:1019F000010B06E04A46F9A1204602F069F8641D91
:101A000000BF00BF2878002895D1222004F8010BE0
:101A1000002004F8010B304662E710B50446206947
:101A2000FFF755FF10BD00E0401C20B1017811B157
:101A300001782029F8DD70472DE9F04706460C466D
:101A400020787B2804D0E74804600020BDE8F087B8
:101A50000620F060601CFFF7E6FF044620787D2832
:101A600001D1601CF2E7FFF7EDFB0546B060B068FE
:101A700008B90020EAE72046FFF7D5FF8046414637
:101A80002846FFF744FE0746FFF7CDFF04460CB992
:101A90000020DBE7286928620020286120783A28A6
:101AA00003D0D04804600020D0E7601CFFF7BBFFE4
:101AB00080464146284600F099F80746FFF7B3FFF5
:101AC00004460CB90020C1E731E0FFF7BBFB071E5D
:101AD00000D1BBE72F607D603D46601CFFF7A3FF90
:101AE000814649462846FFF712FE8046FFF79BFFD6
:101AF00004460CB90020A9E7286928620020286163
:101B000020783A2803D0B748046000209EE7601C84
:101B1000FFF789FF81464946284600F067F880466E
:101B2000FFF781FF04460CB900208FE700BF207843
:101B30002C28CAD020787D2801D1601C86E7A948CE
:101B40000460002082E72DE9F04705460C46207826
:101B50005B2804D0A34804600020BDE8F08705207E
:101B6000E860601CFFF75FFF044620785D2801D124
:101B7000601CF2E7FFF766FB0646A860A86808B994
:101B80000020EAE72046FFF74EFF804641463046F8
:101B900000F02CF80746FFF746FF04460CB900207A
:101BA000DBE717E0FFF74EFB071E00D1D5E73760F4
:101BB0007E603E46601CFFF736FF81464946304650
:101BC00000F014F88046FFF72EFF04460CB9002001
:101BD000C3E700BF20782C28E4D020785D2801D10D
:101BE000601CBAE77F4804600020B6E770B5054680
:101BF0000C460CB9002070BD04227BA1204601F0E8
:101C0000E3FB18B90220E860201DF4E7052278A163
:101C1000204601F0D9FB18B90020E860601DEAE712
:101C2000042275A1204601F0CFFB20B90120E86015
:101C30006861201DDFE72078222804D1214628464C
:101C4000FFF765FDD7E720782D2805D020783028CC
:101C500007DB2078392804DC21462846FFF724FBDF
:101C6000C9E720785B2804D121462846FFF76BFF9F
:101C7000C1E720787B2804D121462846FFF7DCFE07
:101C8000B9E7584804600020B5E72DE9F0478046E1
:101C90000D4616460024FFF7D5FA074600205149A5
:101CA00008600FB9BDE8F0874046FFF7BCFE8146EB
:101CB00049463846FFF79AFF044624B93846FFF7ED
:101CC000CEFA0020EEE766B12046FFF7ACFE0446F0
:101CD000207830B13846FFF7C2FA4248046000204D
:101CE000E0E705B12C603846DCE710B50446002279
:101CF00011462046FFF7C9FF10BD2DE9F74F88B008
:101D0000884616464FF00009CA4600200790072073
:101D10000490002508988068029000270020019018
:101D200003E07F1C02980068029002980028F8D116
:101D30004FBB16B108F1040100E003210846304909
:101D4000096888470790079818B900200BB0BDE8CC
:101D5000F08F079C7B2004F8010B66B10A2004F881
:101D6000010B002503E0092004F8010B6D1CA8F10C
:101D70000100A842F7DC7D2004F8010B002004F8E4
:101D8000010B0798E2E7B8001D49096888478146BA
:101D9000B9F1000F01D10020D8E7B800184909684F
:101DA00088478246BAF1000F05D1484615490968AF
:101DB00088470020CAE7B900484601F0C0FAB900D8
:101DC000504601F0BCFA08988068029008F10108BA
:101DD00016B104984044049044E000007525303466
:101DE00078000000240000206E756C6C000000007C
:101DF00066616C7365000000747275650000000018
:101E00002C000020300000200299086AFFF75FFDD7
:101E100005904AF8250032464146029800F06AF9DA
:101E200029466D1C069049F821000598A8B106982E
:101E300098B1069801F0AAFA8346059801F0A6FA2F
:101E40000BEB0001891C16B108F1020000E0002034
:101E5000014404980844049001E001200190029894
:101E60000068029002980028CED1019820B9FD495F
:101E70000498096888470790079808B901200190DD
:101E80000198F0B1002510E05AF8250020B15AF869
:101E90002500F5490968884759F8250020B159F807
:101EA0002500F149096888476D1CBD42ECDB5046AE
:101EB000ED49096888474846EB490968884700208A
:101EC00044E77B21079801700798441C16B10A204B
:101ED00004F8010B0020207000253EE05EB10020D8
:101EE000039005E0092004F8010B0398401C0390BF
:101EF00003984045F6DB5AF82510204601F05BFABE
:101F00005AF8250001F042FA04443A2004F8010B83
:101F100016B1092004F8010B59F82510204601F0EC
:101F20004AFA59F8250001F031FA0444781EA84213
:101F300002D02C2004F8010B16B10A2004F8010B82
:101F4000002020705AF82500C7490968884759F8C9
:101F50002500C549096888476D1CBD42BEDB504657
:101F6000C149096888474846BF49096888474EB152
:101F7000002503E0092004F8010B6D1CA8F1010005
:101F8000A842F7DC7D2004F8010B002004F8010BC7
:101F90000798DBE62DE9F74F82B083464FF0000843
:101FA00005200190DBF80890002700250020009014
:101FB00002E07F1CD9F80090B9F1000FF9D17FB988
:101FC0000320A849096888478046B8F1000F03D06C
:101FD000A6A1404601F0EFF9404605B0BDE8F08FFC
:101FE000B800A0490968884706460EB90020F4E702
:101FF000B900304601F0A3F9DBF808901FE0DDE9F5
:102000000312491C484600F075F8824629466D1CAB
:1020100046F821A0BAF1000F0DD0504601F0B6F9F4
:10202000801C049909B1012100E0002101440198BC
:102030000844019001E001200090D9F80090B9F126
:10204000000F02D000980028D9D0009820B9854907
:102050000198096888478046B8F1000F01D1012036
:102060000090009890B1002508E056F8250020B1B6
:1020700056F825007C49096888476D1CBD42F4DB91
:1020800030467949096888470020A6E75B2088F830
:10209000000008F101040020207000251CE056F823
:1020A0002510204601F087F956F8250001F06EF959
:1020B0000444781EA84209D02C2004F8010B04988F
:1020C00010B1202004F8010B0020207056F82500E4
:1020D0006549096888476D1CBD42E0DB30466249AE
:1020E000096888475D2004F8010B002004F8010B03
:1020F000404672E72DE9F04104460D46164600279A
:1021000014B90020BDE8F081207B07282FD2DFE83A
:1021100000F00A1004161B202700AFF23430FFF73E
:1021200065F8074623E0AFF23830FFF75FF807465F
:102130001DE0AFF23C30FFF759F8074617E02046A4
:10214000FFF78AF9074612E02046FFF766FC0746CC
:102150000DE0324629462046FFF71CFF074606E001
:10216000324629462046FFF7C8FD074600BF00BF9C
:102170003846C7E710B50446012200212046FFF784
:10218000B9FF10BD10B50446002211462046FFF7E6
:10219000B1FF10BD01468A68002001E0401C1268B2
:1021A000002AFBD170470246906801E0491E006892
:1021B00008B10029FADC704770B505460E46AC68D8
:1021C00000E024682CB13146206AFEF78EFF00281B
:1021D000F7D1204670BD01604860704770B5054674
:1021E000FFF730F804460CB9002070BD28222946BC
:1021F000204601F08BF800202062E06840F48070F7
:10220000E0600020606020602046EEE770B5054683
:102210000E46AC6806B970BD0CB9AE6009E000E0CE
:10222000246814B120680028FAD131462046FFF70F
:10223000D2FF00BFEFE770B506460D46144604B95D
:1022400070BD206A18B10849206A09688847284685
:10225000FEF7CCFF206221463046FFF7D7FF00BFD4
:10226000EEE700002C000020300000205B5D000045
:1022700070B505460C462046FFF7B0FF06463146CE
:102280002846FFF7C3FF70BD2DE9F04105460E4615
:1022900014462046FFF7A2FF07463A463146284635
:1022A000FFF7C9FFBDE8F08110B502460B46916803
:1022B00001E009685B1E09B1002BFADC09B90020B6
:1022C00010BD486810B1D1E900042060086810B161
:1022D000D1E9004060609068884201D10868906050
:1022E0000020086048600846EAE770B504460D46DD
:1022F00029462046FFF7D8FF0646FEF7B0FF70BD1F
:102300002DE9F04105460F460026AC6801E0761C39
:1023100024682CB13946206AFEF7E7FE0028F6D182
:102320002CB131462846FFF7BFFFBDE8F081002001
:10233000FBE770B504460D4629462046FFF7E0FF4F
:102340000646FEF78CFF70BD2DE9F04106460F46AC
:102350001446B56801E02D687F1E0DB1002FFADC30
:102360000DB9BDE8F0812868206068686060206869
:1023700008B120684460B068A84201D1B46001E0AF
:10238000606804600020686028602846FEF767FFE8
:1023900000BFE6E72DE9F04105460E4617464FF02F
:1023A0000008AC6802E008F1010824682CB131464D
:1023B000206AFEF79AFE0028F5D144B13046FEF7B8
:1023C00015FF38623A4641462846FFF7BDFFBDE893
:1023D000F08110B5FEF736FF04460CB10220E06034
:1023E000204610BD10B5FEF72DFF04460CB10120AC
:1023F000E060204610BD10B5FEF724FF04460CB186
:102400000020E060204610BD70B50546FEF71AFFBB
:10241000044624B10DB1012000E00020E060204618
:1024200070BD70B505460E46FEF70CFF044644B17C
:102430000320E060C4E906562846314601F0FDF865
:102440006061204670BD70B50546FEF7FBFE044690
:102450002CB10420E0602846FEF7C8FE206120462B
:1024600070BD10B5FEF7EEFE04460CB10520E0602D
:10247000204610BD10B5FEF7E5FE04460CB106205F
:10248000E060204610BD2DE9F05F81468A460025B8
:10249000AB46FFF7E6FF0646002410E059F824009B
:1024A00001F0BAF80746FFF7BCFF05460CB9B56066
:1024B00003E029465846FFF78EFEAB46641C0EB17A
:1024C0005445EBDB3046BDE8F09F2DE9F05F8146D7
:1024D0008A460025AB46FFF7C4FF0646002410E0FD
:1024E00059F8240001F0C8F80746FFF79AFF05469F
:1024F0000CB9B56003E029465846FFF76CFEAB46C1
:10250000641C0EB15445EBDB3046BDE8F09F2DE96D
:10251000F047074688460025A946FFF7A2FF064672
:10252000002410E007EBC400D0E900211046FFF7BB
:1025300078FF05460CB9B56003E029464846FFF729
:102540004AFEA946641C0EB14445EBDB3046BDE8AB
:10255000F0872DE9F047074688460025A946FFF792
:1025600080FF064600240DE057F82400FFF76BFFBC
:1025700005460CB9B56003E029464846FFF72BFE37
:10258000A946641C0EB14445EEDB3046BDE8F08739
:102590002DE9F047054689464FF0000815B900209F
:1025A000BDE8F087FEF74EFE04460CB90020F7E7C1
:1025B000E86820F48070E06068696061D5E9060130
:1025C000C4E90601286950B12869FEF70FFE2061B1
:1025D000206920B92046FEF742FE0020E0E7286A85
:1025E00050B1286AFEF702FE2062206A20B9204618
:1025F000FEF735FE0020D3E7B9F1000F01D12046E8
:10260000CEE7AF6816E001213846FFF7C1FF064666
:1026100026B92046FEF723FE0020C1E7B8F1000FDF
:1026200005D0C8F80060C6F80480B04601E0A66096
:10263000B0463F68002FE6D12046B1E7014655E09D
:102640000278202A01D1401C50E00278092A01D1E9
:10265000401C4BE002780D2A01D1401C46E0027874
:102660000A2A01D1401C41E002782F2A0BD142787E
:102670002F2A08D100E0401C0278002A36D00278C8
:102680000A2A33D0F7E702782F2A0ED142782A2A75
:102690000BD100E0401C02782AB102782A2AF9D135
:1026A00042782F2AF6D1801C20E00278222A19D104
:1026B00010F8012B01F8012B0AE002785C2A03D103
:1026C00010F8012B01F8012B10F8012B01F8012B58
:1026D000027812B10278222AEFD110F8012B01F80A
:1026E000012B03E010F8012B01F8012B0278002ADE
:1026F000A6D10A7070470000064880470648004788
:10270000FEE7FEE7FEE7FEE7FEE7FEE7FEE7FEE7A1
:10271000FEE7FEE7BF02000831010008314901432E
:10272000314A1160704770B5002100230F22C47830
:1027300004B32D4C246804F4E064C4F5E064210A79
:10274000C1F10403CA40447804FA03F184781440C8
:1027500021430901254C0678A155047804F01F0592
:102760000124AC4005786D11AD0005F1E025C5F8F8
:10277000004109E0047804F01F050124AC401C4D21
:102780000678761145F8264070BD1A4A0A40024381
:10279000154B1B1F1A60704739B1134A121D12687E
:1027A0000243114B1B1D1A6006E00F4A121D1268EE
:1027B00082430D4B1B1D1A607047042808D14FF04F
:1027C000E021096941F004014FF0E022116107E0C6
:1027D0004FF0E021096921F004014FF0E02211617E
:1027E000704700000000FA050CED00E000E400E096
:1027F00080E100E080FFFF1F10B50446CC48844212
:1028000008D10121042000F02DFB0021042000F05C
:1028100029FB46E0C748844208D10121082000F086
:1028200021FB0021082000F01DFB3AE0C248844251
:1028300008D10121102000F015FB0021102000F02C
:1028400011FB2EE0BD48844208D10121202000F078
:1028500009FB0021202000F005FB22E0B84884425B
:1028600008D10121402000F0FDFA0021402000F0B5
:10287000F9FA16E0B348844208D10121802000F023
:10288000F1FA0021802000F0EDFA0AE0AE4884421F
:1028900007D10121801500F0E5FA0021A01500F014
:1028A000E1FA10BD10B50121084600F0DBFA002165
:1028B000012000F0D7FA10BD2DE9F04102460025B5
:1028C0000026002000230024002791F803C00CF00C
:1028D0000F0591F803C00CF0100CBCF1000F03D0F1
:1028E00091F802C04CEA050591F800C0BCF1000F58
:1028F00031D0146800202BE04FF0010C0CFA00F3EB
:10290000B1F800C00CEA03069E4220D183004FF0CC
:102910000F0C0CFA03F7BC4305FA03FC4CEA040461
:1029200091F803C0BCF1280F06D14FF0010C0CFA4E
:1029300000FCC2F814C00AE091F803C0BCF1480FD3
:1029400005D14FF0010C0CFA00FCC2F810C0401C7D
:102950000828D1D31460B1F800C0BCF1FF0F34DDFA
:10296000546800202EE000F1080C4FF0010808FA2E
:102970000CF3B1F800C00CEA03069E4221D183009B
:102980004FF00F0C0CFA03F7BC4305FA03FC4CEABA
:10299000040491F803C0BCF1280F05D100F1080C24
:1029A00008FA0CF8C2F8148091F803C0BCF1480F83
:1029B00007D100F1080C4FF0010808FA0CF8C2F832
:1029C0001080401C0828CED35460BDE8F0814FF63B
:1029D000FF710180022181700421C170704702469D
:1029E000002093680B400BB1012000E000207047ED
:1029F0000146886880B2704702460020D3680B40C9
:102A00000BB1012000E0002070470146C86880B289
:102A1000704701617047416170470AB1016100E090
:102A200041617047C16070474FF480320A43826150
:102A30008161826182698269704702460020434B4E
:102A400018684FF68073184040EA021008433F4B65
:102A5000186070473E49C8617047F0B50A460023C8
:102A600000240021002500F00046B6F1004F02D1FD
:102A7000364EF16901E0354E7168C0F3034583B20B
:102A800000F44016B6F5401F08D121F070612F4EBA
:102A9000766826F070662D4F7E6012E000F4801696
:102AA000B6F5801F06D1032606FA05F4A14341F0CE
:102AB000706106E0460D360103FA06F6B14341F0B7
:102AC000706122B1460D360103FA06F6314300F07B
:102AD0000046B6F1004F02D11C4EF16101E01B4EE1
:102AE0007160F0BD30B500228B071C0F0F2303FA75
:102AF00004F2164B08338C1053F824309343134CD4
:102B000008348D1044F8253023468C1053F82430B7
:102B10008C07240F00FA04F423430C4C08348D1066
:102B200044F8253030BD0A49DC31086070470000A8
:102B300000080140000C0140001001400014014059
:102B400000180140001C014000200140000001402D
:102B500000002042DF48006840F00100DD490860C5
:102B600008464068DC490840DA4948600846006881
:102B7000DA490840D74908600846006820F48020F8
:102B800008600846406820F4FE0048604FF41F00CB
:102B900088607047CF49096821F48031CD4A1160BF
:102BA0001146096821F480211160B0F5803F03D0FF
:102BB000B0F5802F0ED106E0C649096841F4803196
:102BC000C44A116007E0C349096841F4A021C14A21
:102BD000116000E000BF00BF704710B50146002241
:102BE000002300204A11012A02D1BA4C236806E0D2
:102BF000022A02D1B74C236A01E0B64C636A01F0A5
:102C00001F02012494401C400CB1012000E0002070
:102C100010BD38B5002000900024002500BF3120F1
:102C2000FFF7DBFF05460098401C00900098B0F5C8
:102C3000A06F01D0002DF2D03120FFF7CEFF08B1F8
:102C4000012400E00024204638BD01460020A14AAE
:102C5000106820F0F80040EAC10010607047A049F9
:102C600008607047024600209A4B586820F47C1098
:102C700042EA01031843974B586070479849086629
:102C8000704701460020934A506820F00300084333
:102C9000506070478F48406800F00C007047014654
:102CA00000208C4A506820F0F000084350607047C4
:102CB00001460020874A506820F4E06008435060D5
:102CC000704701460020834A506820F4605040EA73
:102CD000C1005060704729B17E4A527A02437D4B51
:102CE0005A7204E07B4A527A82437A4B5A72704796
:102CF0007B49D8310860704701460020754A50680A
:102D000020F440400843506070470021714A20324F
:102D10001170704A82F82010012802D004280AD1CC
:102D200004E001216B4A2032117005E00521694A57
:102D30002032117000E000BF00BF70476949086091
:102D400070476449096A0143624A116270476549E4
:102D500044390860704730B5002100220024002368
:102D60005C4D6D6805F00C0121B1042905D00829DE
:102D700023D105E05C4D056022E05B4D05601FE05E
:102D8000544D6D6805F47012524D6D6805F4803431
:102D9000022505EB92421CB9544D554305600BE0EA
:102DA0004C4D6D6805F400351DB1504D554305601F
:102DB00002E04D4D5543056002E04B4D056000BFFC
:102DC00000BF444D6D6805F0F0010909484D6B5C8A
:102DD0000568DD4045603F4D6D6805F4E061090A16
:102DE000434D6B5C4568DD4085603A4D6D6805F488
:102DF0006051C90A3E4D6B5C4568DD40C560354D8C
:102E00006D6805F44041890B3A4D6B5CC568B5FBB4
:102E1000F3F5056130BD29B12E4A526902432D4BAD
:102E20005A6104E02B4A526982432A4B5A61704727
:102E300029B1284A92690243264B9A6104E0254A47
:102E400092698243234B9A61704729B1214AD26922
:102E50000243204BDA6104E01E4AD26982431D4BD3
:102E6000DA61704729B11B4AD2680243194BDA6014
:102E700004E0184AD2688243164BDA60704729B1E1
:102E8000144A12690243134B1A6104E0114A126991
:102E90008243104B1A6170471249403908607047ED
:102EA0000F49C86470470B49C87170470948406AA8
:102EB00040F0807007494862704701460020054A8B
:102EC00092680A400AB1012000E0002070470149E1
:102ED00088727047001002400000FFF8FFFFF6FE06
:102EE000000042428004424200127A0000093D0084
:102EF000340000204400002010B50446FB48844202
:102F000009D101218803FFF7ADFF00214FF4804074
:102F1000FFF7A8FF32E0F648844209D101214804B6
:102F2000FFF7ADFF00214FF40030FFF7A8FF25E0C9
:102F3000F048844209D101218804FFF7A0FF002155
:102F40004FF48020FFF79BFF18E0EB48844209D143
:102F50000121C804FFF793FF00214FF40020FFF781
:102F60008EFF0BE0E548844208D101210805FFF7F8
:102F700086FF00214FF48010FFF781FF10BD2DE97F
:102F8000F04786B005460E460024A24600BFA14683
:102F90000027B08900B100BF2F462C8A4CF6FF7085
:102FA0000440F08804432C82AC894EF6F3100440B0
:102FB000B08831890843718908430443AC81AC8AE5
:102FC0004FF6FF400440B0890443AC8201A8FFF7EC
:102FD000C2FEC648874202D1DDF810A001E0DDF84C
:102FE0000CA0A88900F4004040B10AEBCA0000EB35
:102FF0000A1031684900B0FBF1F807E00AEBCA009B
:1030000000EB0A1031688900B0FBF1F86420B8FBCE
:10301000F0F004012009642101FB1089A88900F463
:10302000004040B1322000EBC900B0FBF1F000F0ED
:103030000700044308E0322000EB09106421B0FBD4
:10304000F1F000F00F0004432C8106B0BDE8F087DA
:103050004FF41651016000218180C18001810C2153
:10306000418100218181704710B502460020108AFD
:103070004FF2FF0318400B884C8823438C8823436E
:10308000CC8823431843108210BD00210180418069
:103090008180C180704721B1828942F400528281CF
:1030A00004E082894DF6FF731A4082817047F0B5C3
:1030B0000346002400260025002040F66A17B94286
:1030C00000D100BF1846C1F3421401F01F060127CA
:1030D00007FA06F5012C01D10C3004E0022C01D1D5
:1030E000103000E014301AB107682F43076002E087
:1030F0000768AF430760F0BD1AB1838A0B43838230
:1031000002E0838A8B4383827047028A4FF6F07312
:103110001A400282028A0A430282704782894FF271
:10312000FF731A40828182890A438281704721B1EC
:10313000828942F00202828104E082894FF6FD73A7
:103140001A4082817047028A4FF6DF731A4002826A
:10315000028A0A430282704721B1028A42F4804205
:10316000028204E0028A4BF6FF731A400282704723
:10317000C1F308028280704701468888C0F30800C6
:103180007047818941F0010181817047028BD2B281
:103190000283028B42EA012202837047028B02F40F
:1031A0007F420283028B0A430283704721B1828AE5
:1031B00042F02002828204E0828A4FF6DF731A40D6
:1031C0008282704721B1828A42F01002828204E03A
:1031D000828A4FF6EF731A408282704721B1828A49
:1031E00042F00802828204E0828A4FF6F7731A40A6
:1031F0008282704721B1828942F40042828103E0D9
:103200008289C2F30E028281704721B1828A42F420
:103210000062828204E0828A4FF2FF731A40828247
:103220007047828A4FF6FB731A408282828A0A4371
:103230008282704721B1828A42F00202828204E0D7
:10324000828A4FF6FD731A40828270470246002040
:10325000B1F5007F00D100BF13880B400BB10120F6
:1032600000E00020704701F40072B2F5007F00D149
:1032700000BFCA430280704770B502460024002395
:103280000025002040F66A16B14200D100BFC1F30C
:10329000421501F01F03012606FA03F3012D02D1A6
:1032A0009689334006E0022D02D1168A334001E0B0
:1032B000968A33400C12012606FA04F4168834402C
:1032C00013B10CB1012000E0002070BD10B5002248
:1032D000002340F66A14A14200D100BF0A12012463
:1032E0009440A3B2DC43048010BD000000380140CC
:1032F0000044004000480040004C004000500040A6
:10330000A0F14101192900D82030704740EA01039B
:103310009B0703D009E008C9121F08C0042AFAD28B
:1033200003E011F8013B00F8013B521EF9D270474F
:10333000D2B201E000F8012B491EFBD270470022F7
:10334000F6E710B513460A4604461946FFF7F0FFA4
:10335000204610BD30B505462A460B4612F8010B33
:1033600013F8014B08B1A042F8D01CB1002802D0DC
:103370006D1CF1E7284630BDCAB2401E10F8011F8F
:103380008A4202D00029F9D100207047421C10F86F
:10339000011B0029FBD1801A704710B5002200E004
:1033A000521C835C8C5CA34201D1002BF8D1D8B2B3
:1033B000E1B2401A10BD034611F8012B00F8012BB1
:1033C000002AF9D11846704730B50546002003465B
:1033D00000E05B1C934205D2EC5CC85C201A01D172
:1033E000002CF6D130BD2DE9FE4F804681EA030066
:1033F000C00F0C46009021F0004123F00045B8EBCF
:103400000200A94105D24046214690461C460B4683
:10341000024623F00040104347D0270DC7F30A00AF
:10342000C3F30A510290401A019040286BDAC3F3AB
:10343000130040F4801B0098924620B10023D2EB89
:10344000030A63EB0B0B01985946C0F1400250464A
:1034500000F09DF906460D4650465946019A00F087
:10346000B5F910EB08006141002487EA115284EAA3
:10347000E7731A4340D0009A62B3019A012A4FEAD7
:10348000075215DC001B61EB02014FF0004202EA1B
:103490000752CDE90042001C41F5801132462B460F
:1034A00000F0B5F903B0BDE8F08F40462146F9E7DA
:1034B000001B61EB0201001C41F5801300185B4109
:1034C0002018A2F5001747EB030140EAD570B619A2
:1034D0006D4111E06D084FEA360645EAC0754FEAC6
:1034E0000752001B61EB0201001C41F580114908E5
:1034F0004FEA30000019514132462B4603B0BDE877
:10350000F04F00F075B90098012240000023D0EB85
:10351000020263EBE073009821464FEAE074B8EBD7
:10352000000061EB0401E9E783F000435BE781F011
:10353000004158E72DE9FE4F81EA030404F00044FE
:1035400021F0004100944FF0000B23F0004350EABB
:1035500001045ED052EA03045BD0C3F30A54C1F302
:103560000A552C44A4F2F3340194A0FB0254C1F395
:10357000130141F48011C3F3130343F4801301FBDF
:10358000024400FB034E840A970A44EA815447EA46
:103590008357A4FB076802958D0A05FB07854FEA50
:1035A000932C04FB0C542705029D4FEA065847EA6A
:1035B0001637B5EB08056EEB070C870E920E47EA3F
:1035C000811742EA8312A7FB0201B6EB0B0164EB01
:1035D00000042B0D43EA0C335E1844EB1C50DA4612
:1035E0005146E7FB0201C5F313044FEA0B3343EAEC
:1035F00014534FEA0432019C43EA0603A4F10C047D
:103600000294009CCDE900B400F001F903B0BDE8DC
:10361000F08F00200146F9E70EB5C10F80EAE07097
:103620000844CA07002140F233438DE80E000A46E1
:103630000B4600F0ECF803B000BD70B5C1F30A52C0
:1036400001F000450024C1F3130140F2FF3341F4BF
:1036500080119A4201DA002070BD40F233439A4251
:10366000A2F2334203DC524200F0A0F800E09040A6
:103670002C43F1D0404270BD00F0004230F00040D9
:103680000AD0C10D01F56071C0F3160042EA015184
:10369000C2084007114370470020014670470000F0
:1036A00030B5041E71F1000404DB4FF000444042C9
:1036B00064EB0101141E73F1000405DB1C464FF09E
:1036C0000043524263EB04038B4208BF824230BD89
:1036D00030B5041E71F1000404DB4FF00044404299
:1036E00064EB0101141E73F1000405DB1C464FF06E
:1036F0000043524263EB0403994208BF904230BD3D
:1037000030B50B46014600202022012409E021FAB1
:1037100002F59D4205D303FA02F5491B04FA02F5AE
:103720002844151EA2F10102F1DC30BD2DE9F05F45
:103730000546002092469B46884606468146402420
:103740001BE0284641464746224600F02FF85346E4
:103750005A46C01A914110D311461846224600F02D
:1037600016F82D1A67EB01084F462246012000216A
:1037700000F00DF817EB00094E41201EA4F10104E2
:10378000DFDC484631462A464346BDE8F09F202A02
:1037900004DB203A00FA02F1002070479140C2F1A8
:1037A000200320FA03F3194390407047202A04DBDA
:1037B000203A21FA02F00021704721FA02F3D040AA
:1037C000C2F120029140084319467047202A06DBC7
:1037D000CB17203A41FA02F043EAE07306E041FADF
:1037E00002F3D040C2F120029140084319467047CD
:1037F00010B5141E73F1000408DA401C41F10001F9
:1038000092185B411A4301D120F0010010BD2DE94F
:10381000F04D92469B4611B1B1FA81F202E0B0FA46
:1038200080F220329046FFF7B2FF04460F4640EA8E
:103830000A0041EA0B0153465A46084313D0114689
:1038400053EA010019D0C8F140025046FFF7AEFF1D
:1038500005460E46504659464246FFF798FF084334
:1038600005D0012004E020463946BDE8F08D002057
:10387000054346EAE0762C4337430A986305E40A99
:10388000A0EB08000022FD0A44EA47540A3002D5A2
:1038900000200146E9E7010510196941DDE9084505
:1038A00000196941BDE8F04DA2E72DE9F04D81EA2C
:1038B000030404F0004B21F0004514464FF0000AC9
:1038C00023F0004150EA050220D054EA01021DD045
:1038D000C5F30A570246C5F31303C1F31300C1F33E
:1038E0000A5640F4801543F48013A7EB0608101B1A
:1038F000D64608F2FD3873EB050002D308F1010843
:1039000001E092185B41B8F1000F03DA0020014694
:10391000BDE8F08D00204FF48011064684460EE08D
:10392000171B73EB050705D3121B63EB0503064357
:103930004CEA010C49084FEA300092185B4150EA0A
:103940000107EDD152EA030012D082EA040083EAB3
:103950000501084305D0101BAB4106D2012200230C
:1039600006E000224FF0004302E06FF00102531026
:103970001AEB06004CEB085110EB0A0041EB0B016F
:10398000BDE8F04DFFF734BF70B521F000430343AD
:103990000CD0C1F30A550024D5EB040564EB0403F5
:1039A000D617AD1AB34102DB0020014670BD2018C6
:1039B00041EB025170BDC1F30A52C1F3130140F251
:1039C000FF3341F480119A4202DA00200146704729
:1039D00040F233439A42A2F2334202DC5242FFF7F2
:1039E000E5BEFFF7D4BE0000064C074D06E0E068D8
:1039F00040F0010394E8070098471034AC42F6D336
:103A0000FCF79AFB50510008705100082DE9F04D69
:103A100000231A461B1A8A4103DB00200146BDE839
:103A2000F08DC1F30A52C1F3130141F480154FF038
:103A3000000BD10702D100186D41521E0027044629
:103A400040F2FF11384601EB620A3E4680460246CC
:103A500000204FF48011FFF7A9FEC2197141BB1875
:103A600046EB0100B4EB030C75EB000C04D3E41A35
:103A700065EB000517460E46241908F101006D415B
:103A800080463428E3DDF91946EB0600091BA841FE
:103A900003D24FF0FF32134601E0002213461BEB26
:103AA000070046EB0A51BDE8F04DFFF7A1BE00004C
:103AB0000FB4054B10B503A9044A029800F06EF943
:103AC00010BC5DF814FB0000550D00081C00002020
:103AD0000FB4084B10B504A902AA039800F05EF9D0
:103AE000044602A9002000F0F0FC204610BC5DF85E
:103AF00014FB0000CB440008490050EAC12018BF65
:103B000004204A0D18BF40F0010040F2FF72B2EBF2
:103B1000515F08BF40F00200012808BF0520704730
:103B20002DE9F0414F1E00EBC7010446D1E9000129
:103B300015461E4637F006020DD02A463346FFF7DB
:103B4000F9FC7F1E04EBC703D3E90023FFF74BFC0E
:103B500037F00602F1D1022F25D0042F13D0062F03
:103B600018BFBDE8F0812A463346FFF7E3FCD4E9ED
:103B70000A23FFF738FC2A463346FFF7DBFCD4E97B
:103B80000823FFF730FC2A463346FFF7D3FCD4E97D
:103B90000623FFF728FC2A463346FFF7CBFCD4E97F
:103BA0000423FFF720FC2A463346FFF7C3FCD4E981
:103BB0000223FFF718FC2A463346FFF7BBFCD4E983
:103BC0000023BDE8F041FFF70EBC000000221346C1
:103BD00010460149FFF769BE0000F03FFFF703BC44
:103BE0000022134610461146FFF75FBE40F2013235
:103BF00000204FF0E041FFF7C7BE0000024A00205E
:103C00001107FFF7C1BE000001FDFFFF02E008C879
:103C1000121F08C1002AFAD170477047002001E046
:103C200001C1121F002AFBD1704700000149086042
:103C300070470000500000202DE9FF5FDDE9022001
:103C4000010DDDF838B0024318D044F61050A1F24F
:103C5000FF3141430D140F98012820D0A5EB0B0034
:103C6000401C5FEA000A4FF00004474EDFF81C9149
:103C7000A046504616D5CAF1000728E00F98012447
:103C800043A2012808D0002100980F9BC0E9002121
:103C9000C0E90243BDE8FF9F6FEA0B01F4E7CBF1F7
:103CA0000000DEE7074612E0F80707D02246334659
:103CB00040464946FFF73EFC804689462246334649
:103CC00010461946FFF736FC04460E467F10002FBB
:103CD000EAD1DDE90201BAF1000F42464B4602DAB1
:103CE000FFF728FC01E0FFF7E0FD04460E46002246
:103CF000284BFFF7EDFC03D84FF0FF30014607E0FB
:103D00000022254B20463146FFF76DFBFFF753FE9F
:103D1000102409E0002C0ADB0A220023FFF706FD2D
:103D2000019B30321A55641E50EA0102F2D1641C24
:103D3000019AC4F1110314440F9A012A03D00122FD
:103D400008430DD10AE0084304D000204FF0110BC6
:103D50000F9080E7A3EB0B056D1E0DE05B4504DDC6
:103D60004FF0000205F1010504E003DA4FF0000214
:103D7000A5F10105002AECD000980F99C0E90231A5
:103D8000C0E9004586E70000000024400000F03F45
:103D9000300000000000F0430000E03F2DE9FF4F3D
:103DA00095B09B468946064600250FE2252877D127
:103DB00000242746F84A0121059400E0044316F840
:103DC000013F203B01FA03F01042F7D130782A2856
:103DD00011D06FF02F033078A0F13002092A16D8E5
:103DE000059A44F0020402EB820203EB4202104403
:103DF000761C0590EFE759F8042B0592002A03DAA8
:103E0000504244F40054059044F00204761C30788B
:103E10002E2816D116F8010F44F004042A280DD0DC
:103E20006FF02F023078A0F13003092B09D807EB8F
:103E3000870302EB4303C718761CF3E759F8047BAA
:103E4000761C30786C280FD006DC4C2817D06828F8
:103E50000DD06A2814D104E0742810D07A280FD12C
:103E60000DE044F400140AE044F4801401E044F44A
:103E700040147278824202D104F58014761C761CBC
:103E8000307866280BD013DC582877D009DC00285E
:103E900075D04528F6D04628F4D047281AD19DE1A0
:103EA00018E0632835D0642879D0652812D195E1CF
:103EB000702873D008DC6728F1D069286FD06E288D
:103EC0000DD06F2806D1B5E073282CD0752875D099
:103ED000782874D05A46179990476D1C75E1C4F341
:103EE0000250022809D003280DD0D9F80010042868
:103EF0000DD00D6009F1040967E1D9F80010EA1747
:103F0000C1E90052F6E7D9F800100D80F2E70D7014
:103F1000F0E719F8041B8DF8001000208DF801005F
:103F2000EA46012003E059F804AB4FF0FF30610787
:103F30004FF0000102D40DE008F101018846B942BA
:103F40000FDA8045F8DB1AF808100029F4D108E0F0
:103F500008F1010188468142FADB1AF808100029AD
:103F6000F6D105985B46A0EB080721463846179A1C
:103F700000F094FA284400EB080507E04DE029E141
:103F80000DE01AF8010B5A4617999047B8F101084D
:103F9000F7D25B4621463846179A13E142E00A22DF
:103FA0000092C4F302524FF0000A022A08D059F8D6
:103FB00004CB032A4FEAEC710AD00DE029E02AE095
:103FC00009F1070121F00702F2E802C1914609E078
:103FD0000FFA8CFC4FEAEC71042A03D14FFA8CFCE7
:103FE0004FEAEC71002907DA0A460021DCF1000CE7
:103FF00061EB02012D2202E0220504D52B228DF86F
:104000000420012203E0E20701D02022F7E79046D6
:1040100059E00A2102E010220DE010214FF0000AC1
:1040200000910BE010224FF0000A44F0040408272E
:10403000009203E008224FF0000A0092C4F30252FB
:10404000022A05D059F804CB0021032A08D009E040
:1040500009F1070121F00702F2E802C1914605E0EB
:104060001FFA8CFC042A01D10CF0FF0C4FF0000861
:10407000220728D5702806D0009B83F0100353EA4E
:104080000A0305D00EE040228DF80420012208E04A
:104090005CEA010206D030228DF804208DF805007C
:1040A00002229046009B83F0080353EA0A030AD1D8
:1040B0005CEA010201D1620705D530228DF80420A7
:1040C0004FF001087F1E582804D034A003900EA89A
:1040D00002900DE036A0F9E753466046009AFFF7DC
:1040E00025FB84460398825C0298401E0290027071
:1040F0005CEA0100F0D1029806A9081A00F1200A32
:10410000600702D524F4803400E00127574502DD22
:10411000A7EB0A0000E0002000EB0A0100900598E0
:104120004144401A0590E00306D45B462146179AA5
:10413000059800F0B3F90544002706E001A85A46A7
:10414000C05D179990476D1C7F1C4745F6DBE00367
:104150000CD55B462146179A059800F09FF9054457
:1041600004E030205A46179990476D1C0099481E6C
:1041700000900029F5DC08E0029802995A46007880
:10418000491C0291179990476D1CBAF10001AAF1E0
:10419000010AF1DC65E10000092801003031323309
:1041A0003435363738396162636465660000000073
:1041B000303132333435363738394142434445465D
:1041C0000000000000F058F90544761C3078002803
:1041D0007FF4ECAD19B02846BDE8F08F620700D43B
:1041E000062709F1070222F0070CFCE80223E1464A
:1041F00003F000485FEA080C02D00FF2702C0DE0CB
:104200005FEA045C02D50FF2682C07E05FEAC47C29
:1042100002D00FF2602C01E0AFF2700C4FF0FF38CB
:1042200023F00043CDF850C065280CD006DC4528AB
:1042300009D046281DD047283DD13DE0662818D03A
:1042400067287ED138E00021112F01DB112000E02A
:10425000781CCDE9000106A90EA8FFF7EDFCDDE909
:104260000F010E9A03910021009207F1010A0491B7
:104270004DE04FF000400097CDE9011006A90EA8CF
:10428000FFF7DAFCDDE90F0203920E9B1199002281
:10429000DDF80CA00093049211B9791C00EB010A1F
:1042A000B7EB0A0004D4C0F1FF3007F1010A049013
:1042B000AAEB0700019044E0012F00DA012700215A
:1042C000112F01DD112000E03846CDE9000106A9DB
:1042D0000EA8FFF7B1FCDDE90F010E9A0391002152
:1042E00004910092BA4621070CD40399514500DA93
:1042F0008A46BAF1010F05DD009AAAF10101515C6D
:10430000302908D0B84202DA10F1040F06DA012190
:10431000CDE9011015E0AAF10101E9E7002805DC6B
:10432000049901440491AAEB000102E0411C5145AB
:1043300000DD8A460499401A401C01904FF000406D
:104340000290200704D40198504501DBCDF8048089
:1043500000208DF84F0002980DF14F07B0F1004F8B
:1043600025D02B200E9002984FF0020800280CDA7E
:10437000404202902D200E9007E00A210298FFF79C
:10438000BFF93031029007F8011DB8F10001A8F122
:104390000108F2DC02980028EFD1791E0E9808700F
:1043A000307800F0200040F0450007F8020D12A818
:1043B000C01B00F107081498007800B1012000EB41
:1043C0000A01019801EBE07105984144401A401E32
:1043D0000590E00306D45B462146179A059800F045
:1043E0005DF805441498007818B15A46179990471B
:1043F0006D1CE00324D55B462146179A059800F012
:104400004DF805441CE00498002807DBDDE90301B2
:10441000884203DD0098405C179901E0179930202D
:104420005A469047049805F10105401C04900198F4
:10443000401E019004D12E205A46179990476D1CBA
:10444000BAF10001AAF1010ADDDC05E017F8010B61
:104450005A46179990476D1CB8F10001A8F1010860
:10446000F4DC5B462146179A0598ABE62D00000068
:104470002B000000200000002DE9F041044600253B
:104480001E461746880404D405E039462020B0476C
:104490006D1C641EF9D52846BDE8F0812DE9F04178
:1044A000044600251E469046C80301D5302700E08B
:1044B0002027880404D505E041463846B0476D1CE6
:1044C000641EF9D52846BDE8F0810A68531C0B60CC
:1044D000107070472DE9F041C1F30A52A2F2FF3685
:1044E0002F4A304B0D460446142E2FDA002E12DAD6
:1044F000FEF779FF00221346FFF7EAF84CD2002DB1
:10450000A4BF0024254647DA25F00040204318BF09
:10451000254D41D018E0DFF894C02CFA06F705EAE3
:10452000070C5CEA040C08BFBDE8F081FEF75BFFF6
:1045300000221346FFF7CCF82ED2002D03DA4FF4F9
:104540008010F0400544BD43002425E0332EC8BF51
:10455000BDE8F081A6F1140C4FF0FF3727FA0CF7F5
:104560003C4208BFBDE8F081FEF7E1FF00221346A0
:10457000FFF7AEF810D2002D0DDA142E08BF6D1C17
:1045800009D0C6F13400012101FA00F02044A04214
:1045900038BF6D1C0446BC4329462046BDE8F08167
:1045A0009C7500883CE4377E0000F0BFFFFF0F00E1
:1045B00010B5002821D0114B0022001F196803E01C
:1045C000814203D80A4649680029F9D152B11368DB
:1045D000841A9C4204D1006818441060104602E01E
:1045E000506000E0186039B102680B1A934203D1A1
:1045F0000B681A4402604968416010BD4800002001
:10460000F0B50B30154D20F007010024144A0FE0DF
:1046100003688B420BD38B4205D95E1A4318476857
:10462000C3E9006700E04368136002C004E0021DB4
:1046300010680028ECD12046002802D1286808B173
:104640000020F0BD064A07481060074A121A22F0FF
:104650000702C0E9002401202860D7E74C000020B1
:104660004800002064070020600F00202DE9F04D75
:104670001D460C4698B0174621F0004123F0004338
:10468000002814BF4FF0010C4FF0000C0CEB440C51
:10469000FE4A0CEB02064FEA620C66452BD33E0045
:1046A00018BF012606EB45061644F94A964222D366
:1046B000F84A53EA070C02D0944205D148B918B021
:1046C00000201146BDE8F08D002808BF4FF0000C17
:1046D00001D04FF0010C0CEB440212F5001F0AD878
:1046E000002F14BF4FF0010C4FF0000C0CEB4502F3
:1046F00012F5001F07D918B03A462B462146BDE8EF
:10470000F04DFFF76BBA0022DFF88CA3002CB8BF86
:10471000534526DADFF884C36345A8BF022220DAB6
:10472000DFF870C39C451CDCDFF874C30CEB235C22
:10473000BCF1140F08DDCCF1340627FA06FC0CFAA4
:1047400006F6BE420DD108E05FB9CCF1140623FA9B
:1047500006FC0CFA06F69E4203D10CF00102C2F1EF
:10476000020251EA000C19D1002D17DA002C18BFF3
:10477000022A01D0012A07D00220FFF757FA18B009
:10478000BDE8F04DFFF722BA0220FFF74FFAFFF71E
:104790001DFA18B081F00041BDE8F08DB7F1000CB2
:1047A0006CD1534525D104F1804212F5801201BF2E
:1047B00000280020B74918B008BFBDE8F08DB54803
:1047C000884207DC002DA1BF6046294618B0BDE82D
:1047D000F08D07E0281E05DA80F0004118B0604631
:1047E000BDE8F08DAF497944D1E9000118B0BDE8CA
:1047F000F08DDFF8A0C2634525D1002D1FDA19B175
:10480000514512D1D8B909E0002840F0EC82A24A03
:10481000214618B062F31E01BDE8F08D002021464C
:1048200018B060F31E01BDE8F08D08DA18B0234619
:10483000BDE8F04D024600206146FFF736B818B0DB
:104840002146BDE8F08D514518DAB5F1804F0DD005
:10485000A5F1005CBCF1FF5C10D1B4F1000C0DDBE4
:1048600018B06146BDE8F04D00F0ECBB234618B02F
:104870000246BDE8F04D1946FEF75CBE060024F086
:10488000004C3BD1D9B1514533D1002C06DD002D70
:10489000A1BF0020514618B0BDE8F08D002C01DD0D
:1048A000002D1BDB002C13DA002D11DB012A4FF049
:1048B000000014BF78497C4918B0BDE8F08D022A89
:1048C00018BF002C0AD0012A08D1002C06DA0AE011
:1048D000002CB8BF002D11DA012A04D0002018B036
:1048E0000146BDE8F08D18B000204FF00041BDE852
:1048F000F08DA1F14050B0F17F601AD0012000EBA3
:10490000E47050EA020421D0624C521E4FF0000BBA
:10491000104304BF4FF0000B644C654883427CDDBC
:10492000644A654893421FDD884217DB002D25DB72
:1049300037E0002C00DA4AB1022A0CBF01204FF008
:10494000FF3018B0BDE8F04DFEF766BE0120FFF75E
:104950006DF918B0BDE8F04DFFF742B94D4A8A42F3
:1049600002DC002D0ADC1CE0814202DA002D18DA9C
:1049700004E0484B994220DD002D12DD0220FFF7B4
:1049800055F9FFF733F905460E46002253465846BF
:104990002146FEF7CFFD18B066F31E012846BDE89C
:1049A000F08D0220FFF742F9FFF728F90A46214669
:1049B00018B062F31E01BDE8F08D0022304661465A
:1049C000FEF7B2FD80460E466FF00102FEF7DCFFF7
:1049D0004FF05532394BFEF7AAFD42463346FEF7FB
:1049E000A9FD0022364BFEF7A2FD82464246334621
:1049F000049110461946FEF79DFD5246049BFEF7B2
:104A000099FD8A4600904FF0C0422E4B40463146F9
:104A1000FEF790FD2C4A2B4B00E027E0CDE9060184
:104A200051460098FEF786FD82460191274A284BA1
:104A300040463146FEF77EFD5246019BFEF774FD6F
:104A400082460B4602460591DDE90601FEF7CBFCE6
:104A5000DDE90623002688463046FEF765FD52460E
:104A6000059BFEF764FD024600F07EB90020B1F51B
:104A7000801F07DA352230466146FEF785FF06467D
:104A80006FF0340000EB215024E00000FFFF1F0016
:104A9000FFFF0F000000F03F0000F07F00004043E8
:104AA00001FCFFFF5E0900000000F0FF0000F0BF06
:104AB0000000E0410000F043FFFFEF3F5555D53FB8
:104AC0000000E03F4715F73FFE822B6544DF5DF8AD
:104AD0000BAE543EA0F2FF300190C1F3130040F042
:104AE0007F6141F040510291FE498842D8BF0020C9
:104AF00004DDFD498142C8BF012001DD0D9008E0C1
:104B000000200D900198401C01900298A0F58010A3
:104B100002900299F54878440B910D9900EBC10081
:104B2000D0E900230F9330460A920B99FEF7FCFC64
:104B3000CDE90601DDE90A2130460F9BFEF753FC63
:104B400002460B460020EA49FEF7AFFE05910246F9
:104B50000B460090DDE90601FEF7ECFC1490E548F9
:104B60008A464FF0000878440299006812904FF08E
:104B7000005040EA61010D980F9B01EB804000F569
:104B8000002109910A9A1298FEF7CEFC32460B9B3F
:104B9000FEF7CDFC42465346FEF7CCFC064602919A
:104BA00040465146099B129AFEF7C4FCDDE90623F4
:104BB000FEF7BDFC3246029BFEF7B6FC059B009A51
:104BC000FEF7B8FC0091149A04905346104619461B
:104BD000FEF7B0FC06460246C7480B460291062186
:104BE0007844FEF79DFFCDE90510029B3246104642
:104BF0001946FEF79FFCDDE90532FEF79BFC0591A7
:104C00000646534640461946149AFEF7ECFB009BB5
:104C1000049AFEF78FFC3246059BFEF7E4FBCDE9D4
:104C200005104246534610461946FEF783FC002203
:104C3000B24B02910A90FEF7D6FBDDE90532FEF792
:104C4000D2FB0E464246AD4B4046FEF76DFC029B42
:104C50000A9AFEF769FCDDE90532FEF768FC424678
:104C600002910A90334610465146FEF763FCCDE9A7
:104C700006015346149A02990A98FEF75BFC8A468D
:104C800002903346424600990498FEF753FC53467F
:104C9000029AFEF7A8FB82460B4602460591DDE923
:104CA0000601FEF7A0FBDDE9062300208846064644
:104CB000FEF73AFC5246059BFEF739FC8246099105
:104CC0004FF060428E4B30464146FEF733FC049075
:104CD00006918C4A8A4B50460999FEF72BFC824676
:104CE0000291894A894B30464146FEF723FC5246E1
:104CF000029BFEF778FB864B7B440D9A03EBC203C5
:104D0000D3E90023FEF76FFB0E9007910198FEF7A1
:104D100083FC0591DDE9061382460E9A0498FEF79E
:104D200062FB7C4A7A440D9B02EBC303D3E9002368
:104D300000930292FEF757FB5246059BFEF753FB8A
:104D40000026884652463046059BFEF7EDFB009B49
:104D5000029AFEF7E9FB069B049AFEF7E5FB079B28
:104D60000E9AFEF7E4FB024600200B4602903846FE
:104D70002946FEF7DFFB824601912B46384619464D
:104D8000029AFEF7D1FB32464346FEF7D3FB52466A
:104D9000019BFEF728FB07468A46324643462946D2
:104DA0000298FEF7C7FB05460E463A465346FEF705
:104DB0001AFB594A8846914221DBA8EB020353EAC9
:104DC000000210D12A463346FEF7AEFBCDE90401BE
:104DD000524A534B38465146FEF705FBDDE90423A2
:104DE000FEF776FC21D20220FEF720FFFEF7FEFE42
:104DF0000A46214618B062F31E01BDE8F08D494B0A
:104E000028F000429A4210D3474A08EB020353EAC3
:104E100000027FF4C6AD2A463346FEF785FB3A46CC
:104E20005346FEF755FC7FF6BCAD0022019228F0F8
:104E300000403E493E4A01EB2051824223DA481CA1
:104E40004FF4801121FA00F040443A4AC0F30A516D
:104E50007A44394BA1F2FF31CB4020EA0303C0F37F
:104E6000130040F48010C1F11401C8401268019091
:104E7000B8F1000FBCBF4042019028463146FEF712
:104E800053FB05460E462A46334638465146FEF742
:104E9000AAFA4FF000084246284B40460591FEF71B
:104EA00049FBCDE90601264A264B40460599FEF707
:104EB00041FB009102902A46334640460599FEF791
:104EC00033FB3A465346FEF732FB1F4A1F4BFEF7B1
:104ED00031FB009B029AFEF786FA07468846024697
:104EE0000B4635E08E9803007AB60B00A60500004D
:104EF0000000F03FDE0500000C0500000000084047
:104F000009C7EE3FFD033ADCF5015B14E02F3EBE1E
:104F1000E4030000A803000000009040FE822B651F
:104F20004715973C00CC904000346F3F01FCFFFFD9
:104F30000000E03FF4020000FFFF0F00432EE63FB9
:104F4000396CA80C615C20BEEF39FAFE422EE63FB8
:104F5000DDE90601FEF747FADDE9062305460E46C0
:104F6000FEF7E2FA3A464346FEF7E1FA0F462A46D2
:104F70003346009010461946FEF7DCFA8246024698
:104F80002E4888460B4605217844FEF7C9FD524657
:104F90004346FEF7CFFA2A463346FEF7C8FA804664
:104FA0008A463B4628463146009AFEF7C3FA3B46FE
:104FB000009AFEF718FA0691009000224FF0804305
:104FC00040465146FEF7B0FA0F460C904246534613
:104FD00028463146FEF7AEFA3B460C9AFEF765FCD2
:104FE000069B009AFEF7A0FA2A463346FEF79CFA83
:104FF0000022134BFEF79BFA054601980E4601EB83
:1050000000510815002810DC28463146019AFEF7A9
:10501000BBFCFEF771FD042808BFFEF7EFFD284634
:105020003146019AFEF7B0FC05460B4618B02A46F9
:1050300058462146BDE8F04DFEF77CBA94010000C9
:105040000000F03F2DE9F04106460F46FEF7DEFC7A
:10505000041E0D4618BF0120284320F00040C0F177
:105060007F6000F1E040C00F0ED0301C18BF01205F
:10507000384320F00040C0F17F6000F1E040C00FF5
:1050800004BF0120FEF7D2FD20462946BDE8F0818D
:10509000776966695F73656E645F646174610070EF
:1050A000726F746F5F7061636B65745F616E616C6A
:1050B00079000000C0E0F0F8FC00000000000000F3
:1050C000000000000000F03F000000000000F83F7A
:1050D00000000000000000000000004003B8E23FB4
:1050E000000000000000000006D0CF43EBFD4C3E66
:1050F000033333333333E33FFFAB6FDBB66DDB3F5B
:105100004D268F515555D53F01411DA96074D13FA2
:1051100065DBC9934A86CD3FEF4E454A287ECA3F9C
:105120003E5555555555C53F93BDBE166CC166BF1E
:105130002CDE25AF6A56113FF16BD2C541BDBBBE17
:10514000D0A4BE726937663E000000000000000077
:105150007051000800000020540000000C3C0008C2
:10516000C4510008540000200C1300001C3C00082F
:1051700000A24A0400000000000000000102030435
:105180000607080900000000000000000000000001
:1051900000000000000000000000000037110008BF
:1051A000951100080000000001020304010203043D
:1051B00006070809020406080000000000000000BD
:0451C00000000000EB
:0400000508000131BD
:00000001FF
